:080000000C945F000C94000059
:100008000C9400000C9400000C9400000C94BB00AD
:100018000C9400000C9400000C9400000C94000058
:100028000C9400000C9400000C9400000C94000048
:100038000C9400000C9400000C9400000C94000038
:100048000C9400000C9400000C9400000C94000028
:100058000C9400000C9400000C9400000C94000018
:100068000C9400000C9400000C9400000C94000008
:100078000C9400000C9400000C9400000C940000F8
:100088000C9400001027E80364000A000100001027
:10009800000110000100000048656C6C6F00647579
:1000A8007479203A2025640A0031003200000200E9
:1000B80004009E000000F894EE27ECBBF1E0F5BFC9
:1000C800E5BFE0936C008DE0A2E0BB27ED938A9535
:1000D800E9F780E090E1A0E0B1E0ED930197E9F75E
:1000E800E6EBF0E085919591009761F0A591B591C7
:1000F80005901590BF01F00105900D920197E1F769
:10010800FB01F0CF8BBFEFEFEDBFE0E1EEBFC0E04A
:10011800D5E00C94DB00AAE0B0E00E94C702119A77
:10012800E0E0EBB9E8E0EAB9E6E0E0939500E0E06A
:10013800E0939000E8E0E9B90895E2E0EFBDEAE174
:10014800EEBDE0E4FCE9F7BDE6BD0895E0E8E09324
:100158006100E0E0E0936200E2B9E0E3E3B9ECE0DB
:10016800E1BBE2BBE0E3E9BFEFE0EABF0895EA9351
:10017800FA93EFB7EA93EAB7E170E13039F4E0E0D7
:10018800F0E0FDBDECBDEAB7E1500BC0ECB5FDB544
:10019800E0930005F0930105E1E0F0E02F01EAB7F4
:1001A800EF5FEABFE991EFBFF991E9911895CEDFCA
:1001B800B2DFC3DF7894E0EAF0E0FA93EA9380E0F4
:1001C8000E9464022296E1E0F0E0E415F50571F57D
:1001D800E6EAF0E0FA93EA93E0910005F091010570
:1001E800662777270E94E10284E00E94640226962F
:1001F800A0910005B0910105AD3AEDE0BE0740F0D1
:10020800E0E8E0936200ECE0E2BBE1EBF0E006C07E
:10021800E0E0E0936200E2BBE3EBF0E0FA93EA93FC
:1002280080E00E946402229644245524CCCFFFCF5C
:10023800AA935D9BFECFE881ECB921960895BA9305
:10024800AA93AA81F5DFA881B981ED91FD91319634
:10025800FE93EE9323960895BA93AA9326970E9445
:10026800E60210E0AC85BD85E0E0F0E0ED93FC939C
:10027800EA89FB893196EA8BFB8B3197E4912E2F23
:10028800E03009F415C1E12FE03039F4253211F4DA
:1002980011E002C00E94A2020AC1E130A9F425328D
:1002A80019F40E94A20202C112E040E000E02D32DF
:1002B80011F401E0FCC02B3211F44BE2F8C02032FB
:1002C80011F440E2F4C002C0E23039F450E013E027
:1002D800203311F40068EBC003C0E33009F0E7C035
:1002E800203310F02A3308F007C0AAE05A9F502D97
:1002F800E22FE0535E0FDBC0E22FE33649F40E94A1
:10030800A902E889F989A481AA930E94AF02CEC004
:10031800E33741F40E94A9020E94B5020E948902B3
:100328001E2F0AC0E03761F40E94A9020E94B5029C
:100338000E9495021E2F086002600F7730E034C0DB
:10034800E43611F0E93611F4046002C0E53731F4FF
:10035800ECE8F0E0EE83FF8315E00CC0E83511F41B
:10036800086003C0E83709F0A1C0E6E9F0E0EE83D1
:10037800FF8314E002FF14C00E94A9020E94BF027A
:10038800AB85AA233AF4EA85FB850E94D502EA8761
:10039800FB874DE2403011F01F5F01C00B7F04C0A6
:1003A8000E94A9020E94BF0200FD11C0151778F42F
:1003B80007FF08C002FF04C00B7F242F115001C0A3
:1003C80020E301C020E20E94A2025150EFCF312F5A
:1003D80001FF17C03030A1F003FF06C0EE81FF8196
:1003E8002591EE83FF8305C0AE81BF812D91AE8339
:1003F800BF830E94A202503009F051503150EACF19
:100408004BC020E3EE81FF810E94DD02E887F98777
:10041800EE81FF813296EE83FF83E885F985AA8510
:10042800BB85AE17BF0750F02F5FA885B985EA8551
:10043800FB85EA1BFB0BEA87FB87EFCF2A3328F003
:1004480003FF02C0295F01C0295D04FD1AC02133E2
:1004580020F4A885B985119709F409C0531710F03D
:1004680000FF01C013C020E207FF0BC020E30061BA
:1004780002FF07C00B7F4A930E94AF02503009F079
:1004880051500E94A202503009F051503150A885B5
:10049800B985129708F0B5CF00FF08C0503031F089
:1004A8005150E0E2EA930E94AF02F8CF10E0E0CEAC
:1004B800AC85BD850E94D9020E94ED02649608951C
:1004C800FF92F82E26971A930A93DE0114960E943B
:1004D800D1028D01E0E0EC83ED83EE83EF83DE0152
:1004E80018960E94D1020E94D902FA93EA931A93AD
:1004F8000A93E3E2F1E0FA93EA93DE011896ACDEA0
:10050800198108812896FF900895BA93AA93A99112
:10051800B991EE27FF276D91662311F03196FBCF35
:100528000895BA93AA93AA27BB27E991F991059050
:10053800002011F01196FBCFFD0108952A93AD8597
:10054800BE85EF85F88909950895E889F989349772
:10055800E88BF98B0895AD85BE85EF85F8890995F7
:100568000895A889B98914960E94D902EE83FF8359
:10057800AE81BF810895A889B98914960E94D902CD
:10058800EA87FB870895109639F080EA9FE0019783
:10059800F1F7A8951197C9F708950024AF0DB01D7C
:1005A8000895F195E195F0400895ED91FC9111972A
:1005B80008950590F491E02D08957A936A93FA933B
:1005C800EA9308955A934A933A932A931A930A936B
:1005D80008955D814C813B812A81198108810895A4
:00000001FF
