:020000000C945E
:100002005D000C9400000C9400000C9400000C9411
:1000120000000C9400000C9400000C9400000C945E
:1000220000000C9400000C9400000C9400000C944E
:1000320000000C9400000C9400000C9400000C943E
:1000420000000C9400000C948D000C9400000C94A1
:1000520000000C9400000C9400000C9400000C941E
:1000620000000C9400000C9400000C9400000C940E
:1000720000000C9400000C9400000C9400000C94FE
:1000820000000C9400000C9400001027E8036400A8
:100092000A000100001000011000010000002564A8
:1000A2002C25732C303A25642C313A25640A000041
:1000B200020004009E000000F894EE27ECBBF1E081
:1000C200F5BFE5BFE0936C008DE0A2E0BB27ED93A6
:1000D2008A95E9F780E090E1A0E0B1E0ED93019725
:1000E200E9F7E2EBF0E085919591009761F0A59137
:1000F200B59105901590BF01F00105900D92019701
:10010200E1F7FB01F0CF8BBFEFEFEDBFE0E1EEBF18
:10011200C0E0D5E00C94A200AA93BA93EA93FA93B2
:10012200EFB7EA93E42D4394F0E0E050FB4FDF0198
:10013200ECB1EC93E991EFBFF991E991B991A991F1
:1001420018952497E0E0E883E983EA83EB8300E0F3
:1001520010E020E030E050E0E0E6E7BBEFEFEABB82
:10016200E2EAEFBDEAE1EEBDEFE3FCE9F7BDE6BD91
:10017200E0E0F0E0FBBDEABDF9BDE8BDE7BFEBB9E9
:10018200E8E9EAB9E6E0E0939500E0E0E093900068
:10019200E9E1E9B97894EFEF0E94E202E0E00E941F
:1001A200E20200E010E021E030E0E42DD801F0E0CE
:1001B200EA17FB071CF10E94E902AC3311F4E1E0FB
:1001C2005E2A0E94E902AC3259F4F9012F5F3F4FD7
:1001D200A4E1B5E0EE0FFF1FEA0FFB1F00831183BE
:1001E2000E94E902AE3339F4E2E05E2AF801EF5FE1
:1001F200FA4FA0E0A0830F5F1F4FD7CFE3E0E515D2
:1002020009F056C0E0911405F0911505EF5FFA4F21
:10021200E081EA83E0911605F0911705EF5FFA4F4E
:10022200E081EB830E94EF02EBBB0E94EF02F0E061
:10023200ED57F040BF01E6B5F7B53196DF01E4ECCA
:10024200F9E00E943B03DB010E943303E854F44FC0
:10025200FBBDEABDE0EAF0E0FA93EA93EA81FB81B2
:10026200DE011496AE0FBF1FEC91FF27662777279A
:100272000E945603E0E0F5E0662777270E945603C6
:10028200E0911405F09115050E942E030E94560379
:10029200E0911605F09117050E942E030E94560365
:1002A20080E10E94A40262965524442450E001C0D9
:1002B20078CF77CFFFCFAA935D9BFECFE881ECB9D1
:1002C20021960895BA93AA93AA81F5DFA881B981EC
:1002D200ED91FD913196FE93EE9323960895BA9394
:1002E200AA9326970E945B0310E0AC85BD85E0E0EF
:1002F200F0E0ED93FC93EA89FB893196EA8BFB8B64
:100302003197E4912E2FE03009F415C1E12FE0304E
:1003120039F4253211F411E002C00E94F7020AC139
:10032200E130A9F4253219F40E94F70202C112E069
:1003320040E000E02D3211F401E0FCC02B3211F458
:100342004BE2F8C0203211F440E2F4C002C0E230C5
:1003520039F450E013E0203311F40068EBC003C01D
:10036200E33009F0E7C0203310F02A3308F007C069
:10037200AAE05A9F502DE22FE0535E0FDBC0E22F1E
:10038200E33649F40E94FE02E889F989A481AA931E
:100392000E940403CEC0E33741F40E94FE020E9491
:1003A2000A030E94C9021E2F0AC0E03761F40E94AC
:1003B200FE020E940A030E94D5021E2F08600260FC
:1003C2000F7730E034C0E43611F0E93611F40460FE
:1003D20002C0E53731F4ECE8F0E0EE83FF8315E08C
:1003E2000CC0E83511F4086003C0E83709F0A1C079
:1003F200E6E9F0E0EE83FF8314E002FF14C00E94FE
:10040200FE020E941403AB85AA233AF4EA85FB8517
:100412000E942A03EA87FB874DE2403011F01F5FFA
:1004220001C00B7F04C00E94FE020E94140300FD63
:1004320011C0151778F407FF08C002FF04C00B7F34
:10044200242F115001C020E301C020E20E94F702D4
:100452005150EFCF312F01FF17C03030A1F003FF11
:1004620006C0EE81FF812591EE83FF8305C0AE8138
:10047200BF812D91AE83BF830E94F702503009F0F5
:1004820051503150EACF4BC020E3EE81FF810E94F0
:100492005203E887F987EE81FF813296EE83FF836C
:1004A200E885F985AA85BB85AE17BF0750F02F5F97
:1004B200A885B985EA85FB85EA1BFB0BEA87FB87E2
:1004C200EFCF2A3328F003FF02C0295F01C0295D64
:1004D20004FD1AC0213320F4A885B985119709F4C7
:1004E20009C0531710F000FF01C013C020E207FF3C
:1004F2000BC020E3006102FF07C00B7F4A930E94FA
:100502000403503009F051500E94F702503009F0B4
:1005120051503150A885B985129708F0B5CF00FF28
:1005220008C0503031F05150E0E2EA930E940403D7
:10053200F8CF10E0E0CEAC85BD850E944E030E944C
:10054200620364960895FF92F82E26971A930A93EF
:10055200DE0114960E9426038D01E0E0EC83ED8318
:10056200EE83EF83DE0118960E9426030E944E035B
:10057200FA93EA931A930A93E3E6F1E0FA93EA9381
:10058200DE011896ACDE198108812896FF90089545
:10059200BA93AA93A991B991EE27FF276D91662389
:1005A20011F03196FBCF0895BA93AA93AA27BB27DD
:1005B200E991F9910590002011F01196FBCFFD0110
:1005C2000895EBBBEAE2ECB9A4EFB1E00C941C0392
:1005D200A0E0B5E0A00FB11FAC910895E881F981C8
:1005E200DE011296AE0FBF1FEC9108952A93AD85DE
:1005F200BE85EF85F88909950895E889F9893497C8
:10060200E88BF98B0895AD85BE85EF85F88909954C
:100612000895A889B98914960E944E03EE83FF8338
:10062200AE81BF810895A889B98914960E944E03AC
:10063200EA87FB870895109639F080EA9FE00197D8
:10064200F1F7A8951197C9F708950024AF0DB01DD1
:100652000895F195E195F04008956F2F660F660BAE
:10066200762F0895FA9FF02DEB9FF00DEA9FE02D73
:10067200F10D08950024112490E1AA0FBB1F001C64
:10068200111C0E1A1F0A18F40E0E1F1E01C0A160C3
:100692009A9599F7FD01D0010895ED91FC9111977A
:1006A20008950590F491E02D08957A936A93FA9350
:1006B200EA9308955A934A933A932A931A930A9380
:1006C20008955D814C813B812A81198108810895B9
:00000001FF
